{
  "_format": "hh-sol-artifact-1",
  "contractName": "GetPrice",
  "sourceName": "contracts/GetPrice.sol",
  "abi": [
    {
      "inputs": [
        {
          "internalType": "address",
          "name": "_factory",
          "type": "address"
        },
        {
          "internalType": "address",
          "name": "_WBNB",
          "type": "address"
        },
        {
          "internalType": "address",
          "name": "_BUSD",
          "type": "address"
        }
      ],
      "stateMutability": "nonpayable",
      "type": "constructor"
    },
    {
      "inputs": [],
      "name": "BUSD",
      "outputs": [
        {
          "internalType": "address",
          "name": "",
          "type": "address"
        }
      ],
      "stateMutability": "view",
      "type": "function"
    },
    {
      "inputs": [],
      "name": "WBNB",
      "outputs": [
        {
          "internalType": "address",
          "name": "",
          "type": "address"
        }
      ],
      "stateMutability": "view",
      "type": "function"
    },
    {
      "inputs": [],
      "name": "factory",
      "outputs": [
        {
          "internalType": "address",
          "name": "",
          "type": "address"
        }
      ],
      "stateMutability": "view",
      "type": "function"
    },
    {
      "inputs": [
        {
          "internalType": "address",
          "name": "path0",
          "type": "address"
        }
      ],
      "name": "getBNBToTokenPrice",
      "outputs": [
        {
          "internalType": "uint256",
          "name": "amountOut",
          "type": "uint256"
        }
      ],
      "stateMutability": "view",
      "type": "function"
    },
    {
      "inputs": [
        {
          "internalType": "address",
          "name": "path0",
          "type": "address"
        },
        {
          "internalType": "uint256",
          "name": "amountInput",
          "type": "uint256"
        }
      ],
      "name": "getBNBToTokenPriceUsingAmount",
      "outputs": [
        {
          "internalType": "uint256",
          "name": "amountOut",
          "type": "uint256"
        }
      ],
      "stateMutability": "view",
      "type": "function"
    },
    {
      "inputs": [
        {
          "internalType": "address",
          "name": "path0",
          "type": "address"
        }
      ],
      "name": "getBUSDToTokenPrice",
      "outputs": [
        {
          "internalType": "uint256",
          "name": "amountOut",
          "type": "uint256"
        }
      ],
      "stateMutability": "view",
      "type": "function"
    },
    {
      "inputs": [
        {
          "internalType": "address",
          "name": "path0",
          "type": "address"
        },
        {
          "internalType": "uint256",
          "name": "amountInput",
          "type": "uint256"
        }
      ],
      "name": "getBUSDToTokenPriceUsingAmount",
      "outputs": [
        {
          "internalType": "uint256",
          "name": "amountOut",
          "type": "uint256"
        }
      ],
      "stateMutability": "view",
      "type": "function"
    },
    {
      "inputs": [
        {
          "internalType": "address",
          "name": "path0",
          "type": "address"
        }
      ],
      "name": "getPrice",
      "outputs": [
        {
          "internalType": "uint256",
          "name": "amountOut",
          "type": "uint256"
        },
        {
          "internalType": "uint256",
          "name": "reserveETHIn",
          "type": "uint256"
        },
        {
          "internalType": "uint256",
          "name": "reserveUSDOut",
          "type": "uint256"
        }
      ],
      "stateMutability": "view",
      "type": "function"
    },
    {
      "inputs": [
        {
          "internalType": "address",
          "name": "path0",
          "type": "address"
        },
        {
          "internalType": "uint256",
          "name": "amountInput",
          "type": "uint256"
        }
      ],
      "name": "getPriceUsingAmount",
      "outputs": [
        {
          "internalType": "uint256",
          "name": "amountOut",
          "type": "uint256"
        },
        {
          "internalType": "uint256",
          "name": "reserveETHIn",
          "type": "uint256"
        },
        {
          "internalType": "uint256",
          "name": "reserveUSDOut",
          "type": "uint256"
        }
      ],
      "stateMutability": "view",
      "type": "function"
    },
    {
      "inputs": [
        {
          "internalType": "address",
          "name": "path0",
          "type": "address"
        },
        {
          "internalType": "address",
          "name": "path1",
          "type": "address"
        },
        {
          "internalType": "uint256",
          "name": "amountInput",
          "type": "uint256"
        }
      ],
      "name": "getTokenPriceUsingAmount",
      "outputs": [
        {
          "internalType": "uint256",
          "name": "amountOut",
          "type": "uint256"
        }
      ],
      "stateMutability": "view",
      "type": "function"
    },
    {
      "inputs": [
        {
          "internalType": "address",
          "name": "path0",
          "type": "address"
        }
      ],
      "name": "getTokenToBNBPrice",
      "outputs": [
        {
          "internalType": "uint256",
          "name": "amountOut",
          "type": "uint256"
        }
      ],
      "stateMutability": "view",
      "type": "function"
    },
    {
      "inputs": [
        {
          "internalType": "address",
          "name": "path0",
          "type": "address"
        },
        {
          "internalType": "uint256",
          "name": "amountInput",
          "type": "uint256"
        }
      ],
      "name": "getTokenToBNBPriceUsingAmount",
      "outputs": [
        {
          "internalType": "uint256",
          "name": "amountOut",
          "type": "uint256"
        }
      ],
      "stateMutability": "view",
      "type": "function"
    },
    {
      "inputs": [
        {
          "internalType": "address",
          "name": "path0",
          "type": "address"
        }
      ],
      "name": "getTokenToBUSDPrice",
      "outputs": [
        {
          "internalType": "uint256",
          "name": "amountOut",
          "type": "uint256"
        }
      ],
      "stateMutability": "view",
      "type": "function"
    },
    {
      "inputs": [
        {
          "internalType": "address",
          "name": "path0",
          "type": "address"
        },
        {
          "internalType": "uint256",
          "name": "amountInput",
          "type": "uint256"
        }
      ],
      "name": "getTokenToBUSDPriceUsingAmount",
      "outputs": [
        {
          "internalType": "uint256",
          "name": "amountOut",
          "type": "uint256"
        }
      ],
      "stateMutability": "view",
      "type": "function"
    },
    {
      "inputs": [],
      "name": "owner",
      "outputs": [
        {
          "internalType": "address",
          "name": "",
          "type": "address"
        }
      ],
      "stateMutability": "view",
      "type": "function"
    },
    {
      "inputs": [
        {
          "internalType": "address",
          "name": "_owner",
          "type": "address"
        }
      ],
      "name": "setOwner",
      "outputs": [],
      "stateMutability": "nonpayable",
      "type": "function"
    }
  ],
  "bytecode": "0x608060405234801561001057600080fd5b50604051610e4a380380610e4a83398101604081905261002f9161009a565b600080546001600160a01b039485166001600160a01b031991821617909155600180549385169382169390931790925560028054919093169082161790915560038054909116331790556100dd565b80516001600160a01b038116811461009557600080fd5b919050565b6000806000606084860312156100af57600080fd5b6100b88461007e565b92506100c66020850161007e565b91506100d46040850161007e565b90509250925092565b610d5e806100ec6000396000f3fe608060405234801561001057600080fd5b50600436106101005760003560e01c80636b2521c4116100975780638dd95002116100665780638dd9500214610231578063a782969414610244578063c45a015514610257578063e4ebc0a61461026a57600080fd5b80636b2521c4146101e557806377c784d4146101f857806381e8d6321461020b5780638da5cb5b1461021e57600080fd5b80633ec9f61d116100d35780633ec9f61d146101665780633f54f3d61461017957806341976e091461018c578063484f4ea9146101ba57600080fd5b8063120a20a61461010557806313af40351461012b5780631b3809a5146101405780631f0e3a5214610153575b600080fd5b610118610113366004610ab5565b61027d565b6040519081526020015b60405180910390f35b61013e610139366004610adf565b6102b7565b005b61011861014e366004610ab5565b610338565b610118610161366004610adf565b61035b565b610118610174366004610b01565b61041f565b610118610187366004610ab5565b610454565b61019f61019a366004610adf565b610477565b60408051938452602084019290925290820152606001610122565b6002546101cd906001600160a01b031681565b6040516001600160a01b039091168152602001610122565b6101186101f3366004610adf565b61054c565b61019f610206366004610ab5565b6105c7565b610118610219366004610ab5565b610631565b6003546101cd906001600160a01b031681565b6001546101cd906001600160a01b031681565b610118610252366004610adf565b610653565b6000546101cd906001600160a01b031681565b610118610278366004610adf565b6106ba565b600080546001548291829161029f916001600160a01b039081169116876106d9565b915091506102ae8483836107af565b95945050505050565b6003546001600160a01b031633146103165760405162461bcd60e51b815260206004820152601860248201527f6d73672073656e6465723a206973206e6f74206f776e6572000000000000000060448201526064015b60405180910390fd5b600380546001600160a01b0319166001600160a01b0392909216919091179055565b600080546001548291829161029f916001600160a01b03908116918891166106d9565b600080546002548291829161037d916001600160a01b039081169116866106d9565b915091506000600260009054906101000a90046001600160a01b03166001600160a01b031663313ce5676040518163ffffffff1660e01b8152600401602060405180830381865afa1580156103d6573d6000803e3d6000fd5b505050506040513d601f19601f820116820180604052508101906103fa9190610b3d565b60ff1690506102ae61040d82600a610c5c565b610418906001610c68565b84846107af565b600080548190819061043b906001600160a01b031687876106d9565b9150915061044a8483836107af565b9695505050505050565b600080546002548291829161029f916001600160a01b03908116918891166106d9565b60008054600154829182918291829161049e916001600160a01b03908116918991166106d9565b915091506000866001600160a01b031663313ce5676040518163ffffffff1660e01b8152600401602060405180830381865afa1580156104e2573d6000803e3d6000fd5b505050506040513d601f19601f820116820180604052508101906105069190610b3d565b60ff16905061051961040d82600a610c5c565b60005460015460025492985061053f926001600160a01b039283169291821691166106d9565b9698909750945050505050565b600080546001548291829161056e916001600160a01b039081169116866106d9565b915091506000600160009054906101000a90046001600160a01b03166001600160a01b031663313ce5676040518163ffffffff1660e01b8152600401602060405180830381865afa1580156103d6573d6000803e3d6000fd5b6000805460015482918291829182916105ee916001600160a01b03908116918a91166106d9565b915091506105fd8683836107af565b600054600154600254929750610623926001600160a01b039283169291821691166106d9565b959890975094955050505050565b600080546002548291829161029f916001600160a01b039081169116876106d9565b6000805460025482918291610676916001600160a01b03908116918791166106d9565b915091506000846001600160a01b031663313ce5676040518163ffffffff1660e01b8152600401602060405180830381865afa1580156103d6573d6000803e3d6000fd5b6000805460015482918291610676916001600160a01b03908116918791165b60008060006106e885856108cb565b5090506106f68686866109c0565b506000806107058888886109c0565b6001600160a01b0316630902f1ac6040518163ffffffff1660e01b8152600401606060405180830381865afa158015610742573d6000803e3d6000fd5b505050506040513d601f19601f820116820180604052508101906107669190610c9e565b506001600160701b031691506001600160701b03169150826001600160a01b0316876001600160a01b03161461079d5780826107a0565b81815b90999098509650505050505050565b60008084116108125760405162461bcd60e51b815260206004820152602960248201527f50616e63616b654c6962726172793a20494e53554646494349454e545f494e50604482015268155517d05353d5539560ba1b606482015260840161030d565b6000831180156108225750600082115b61087d5760405162461bcd60e51b815260206004820152602660248201527f50616e63616b654c6962726172793a20494e53554646494349454e545f4c495160448201526555494449545960d01b606482015260840161030d565b600061088b856126fc610c68565b905060006108998483610c68565b90506000826108aa87612710610c68565b6108b49190610cee565b90506108c08183610d06565b979650505050505050565b600080826001600160a01b0316846001600160a01b03160361093b5760405162461bcd60e51b815260206004820152602360248201527f50616e63616b654c6962726172793a204944454e544943414c5f41444452455360448201526253455360e81b606482015260840161030d565b826001600160a01b0316846001600160a01b03161061095b57828461095e565b83835b90925090506001600160a01b0382166109b95760405162461bcd60e51b815260206004820152601c60248201527f50616e63616b654c6962726172793a205a45524f5f4144445245535300000000604482015260640161030d565b9250929050565b60008060006109cf85856108cb565b6040516bffffffffffffffffffffffff19606084811b8216602084015283901b1660348201529193509150869060480160405160208183030381529060405280519060200120604051602001610a779291906001600160f81b0319815260609290921b6bffffffffffffffffffffffff1916600183015260158201527fbf110cb3d6e36544f84d8b3383057b9c7f2cdf826e27d4af93831ff318d4d550603582015260550190565b60408051601f1981840301815291905280516020909101209695505050505050565b80356001600160a01b0381168114610ab057600080fd5b919050565b60008060408385031215610ac857600080fd5b610ad183610a99565b946020939093013593505050565b600060208284031215610af157600080fd5b610afa82610a99565b9392505050565b600080600060608486031215610b1657600080fd5b610b1f84610a99565b9250610b2d60208501610a99565b9150604084013590509250925092565b600060208284031215610b4f57600080fd5b815160ff81168114610afa57600080fd5b634e487b7160e01b600052601160045260246000fd5b600181815b80851115610bb1578160001904821115610b9757610b97610b60565b80851615610ba457918102915b93841c9390800290610b7b565b509250929050565b600082610bc857506001610c56565b81610bd557506000610c56565b8160018114610beb5760028114610bf557610c11565b6001915050610c56565b60ff841115610c0657610c06610b60565b50506001821b610c56565b5060208310610133831016604e8410600b8410161715610c34575081810a610c56565b610c3e8383610b76565b8060001904821115610c5257610c52610b60565b0290505b92915050565b6000610afa8383610bb9565b6000816000190483118215151615610c8257610c82610b60565b500290565b80516001600160701b0381168114610ab057600080fd5b600080600060608486031215610cb357600080fd5b610cbc84610c87565b9250610cca60208501610c87565b9150604084015163ffffffff81168114610ce357600080fd5b809150509250925092565b60008219821115610d0157610d01610b60565b500190565b600082610d2357634e487b7160e01b600052601260045260246000fd5b50049056fea2646970667358221220441c1d43b3446ffb89a54c6619496405dcb5374226824f723515915d5afcbddc64736f6c634300080e0033",
  "linkReferences": {},
  "deployedLinkReferences": {}
}