{
  "_format": "hh-sol-artifact-1",
  "contractName": "GetPrice",
  "sourceName": "contracts/GetPrice.sol",
  "abi": [
    {
      "inputs": [
        {
          "internalType": "address",
          "name": "_factory",
          "type": "address"
        },
        {
          "internalType": "address",
          "name": "_WBNB",
          "type": "address"
        },
        {
          "internalType": "address",
          "name": "_BUSD",
          "type": "address"
        }
      ],
      "stateMutability": "nonpayable",
      "type": "constructor"
    },
    {
      "inputs": [],
      "name": "BUSD",
      "outputs": [
        {
          "internalType": "address",
          "name": "",
          "type": "address"
        }
      ],
      "stateMutability": "view",
      "type": "function"
    },
    {
      "inputs": [],
      "name": "WBNB",
      "outputs": [
        {
          "internalType": "address",
          "name": "",
          "type": "address"
        }
      ],
      "stateMutability": "view",
      "type": "function"
    },
    {
      "inputs": [],
      "name": "factory",
      "outputs": [
        {
          "internalType": "address",
          "name": "",
          "type": "address"
        }
      ],
      "stateMutability": "view",
      "type": "function"
    },
    {
      "inputs": [
        {
          "internalType": "address",
          "name": "path0",
          "type": "address"
        }
      ],
      "name": "getBNBToTokenPrice",
      "outputs": [
        {
          "internalType": "uint256",
          "name": "amountOut",
          "type": "uint256"
        }
      ],
      "stateMutability": "view",
      "type": "function"
    },
    {
      "inputs": [
        {
          "internalType": "address",
          "name": "path0",
          "type": "address"
        },
        {
          "internalType": "uint256",
          "name": "amountInput",
          "type": "uint256"
        }
      ],
      "name": "getBNBToTokenPriceUsingAmount",
      "outputs": [
        {
          "internalType": "uint256",
          "name": "amountOut",
          "type": "uint256"
        }
      ],
      "stateMutability": "view",
      "type": "function"
    },
    {
      "inputs": [
        {
          "internalType": "address",
          "name": "path0",
          "type": "address"
        }
      ],
      "name": "getBUSDToTokenPrice",
      "outputs": [
        {
          "internalType": "uint256",
          "name": "amountOut",
          "type": "uint256"
        }
      ],
      "stateMutability": "view",
      "type": "function"
    },
    {
      "inputs": [
        {
          "internalType": "address",
          "name": "path0",
          "type": "address"
        },
        {
          "internalType": "uint256",
          "name": "amountInput",
          "type": "uint256"
        }
      ],
      "name": "getBUSDToTokenPriceUsingAmount",
      "outputs": [
        {
          "internalType": "uint256",
          "name": "amountOut",
          "type": "uint256"
        }
      ],
      "stateMutability": "view",
      "type": "function"
    },
    {
      "inputs": [
        {
          "internalType": "address",
          "name": "path0",
          "type": "address"
        }
      ],
      "name": "getPrice",
      "outputs": [
        {
          "internalType": "uint256",
          "name": "amountOut",
          "type": "uint256"
        },
        {
          "internalType": "uint256",
          "name": "reserveETHIn",
          "type": "uint256"
        },
        {
          "internalType": "uint256",
          "name": "reserveUSDOut",
          "type": "uint256"
        }
      ],
      "stateMutability": "view",
      "type": "function"
    },
    {
      "inputs": [
        {
          "internalType": "address",
          "name": "path0",
          "type": "address"
        },
        {
          "internalType": "uint256",
          "name": "amountInput",
          "type": "uint256"
        }
      ],
      "name": "getPriceUsingAmount",
      "outputs": [
        {
          "internalType": "uint256",
          "name": "amountOut",
          "type": "uint256"
        },
        {
          "internalType": "uint256",
          "name": "reserveETHIn",
          "type": "uint256"
        },
        {
          "internalType": "uint256",
          "name": "reserveUSDOut",
          "type": "uint256"
        }
      ],
      "stateMutability": "view",
      "type": "function"
    },
    {
      "inputs": [
        {
          "internalType": "address",
          "name": "path0",
          "type": "address"
        },
        {
          "internalType": "address",
          "name": "path1",
          "type": "address"
        }
      ],
      "name": "getReserves",
      "outputs": [
        {
          "internalType": "uint256",
          "name": "reserveIn",
          "type": "uint256"
        },
        {
          "internalType": "uint256",
          "name": "reserveOut",
          "type": "uint256"
        }
      ],
      "stateMutability": "view",
      "type": "function"
    },
    {
      "inputs": [
        {
          "internalType": "address",
          "name": "path0",
          "type": "address"
        },
        {
          "internalType": "address",
          "name": "path1",
          "type": "address"
        },
        {
          "internalType": "uint256",
          "name": "amountInput",
          "type": "uint256"
        }
      ],
      "name": "getTokenPriceUsingAmount",
      "outputs": [
        {
          "internalType": "uint256",
          "name": "amountOut",
          "type": "uint256"
        }
      ],
      "stateMutability": "view",
      "type": "function"
    },
    {
      "inputs": [
        {
          "internalType": "address",
          "name": "path0",
          "type": "address"
        }
      ],
      "name": "getTokenToBNBPrice",
      "outputs": [
        {
          "internalType": "uint256",
          "name": "amountOut",
          "type": "uint256"
        }
      ],
      "stateMutability": "view",
      "type": "function"
    },
    {
      "inputs": [
        {
          "internalType": "address",
          "name": "path0",
          "type": "address"
        },
        {
          "internalType": "uint256",
          "name": "amountInput",
          "type": "uint256"
        }
      ],
      "name": "getTokenToBNBPriceUsingAmount",
      "outputs": [
        {
          "internalType": "uint256",
          "name": "amountOut",
          "type": "uint256"
        }
      ],
      "stateMutability": "view",
      "type": "function"
    },
    {
      "inputs": [
        {
          "internalType": "address",
          "name": "path0",
          "type": "address"
        }
      ],
      "name": "getTokenToBUSDPrice",
      "outputs": [
        {
          "internalType": "uint256",
          "name": "amountOut",
          "type": "uint256"
        }
      ],
      "stateMutability": "view",
      "type": "function"
    },
    {
      "inputs": [
        {
          "internalType": "address",
          "name": "path0",
          "type": "address"
        },
        {
          "internalType": "uint256",
          "name": "amountInput",
          "type": "uint256"
        }
      ],
      "name": "getTokenToBUSDPriceUsingAmount",
      "outputs": [
        {
          "internalType": "uint256",
          "name": "amountOut",
          "type": "uint256"
        }
      ],
      "stateMutability": "view",
      "type": "function"
    },
    {
      "inputs": [],
      "name": "owner",
      "outputs": [
        {
          "internalType": "address",
          "name": "",
          "type": "address"
        }
      ],
      "stateMutability": "view",
      "type": "function"
    },
    {
      "inputs": [
        {
          "internalType": "address",
          "name": "_owner",
          "type": "address"
        }
      ],
      "name": "setOwner",
      "outputs": [],
      "stateMutability": "nonpayable",
      "type": "function"
    }
  ],
  "bytecode": "0x608060405234801561001057600080fd5b50604051610ed5380380610ed583398101604081905261002f9161009a565b600080546001600160a01b039485166001600160a01b031991821617909155600180549385169382169390931790925560028054919093169082161790915560038054909116331790556100dd565b80516001600160a01b038116811461009557600080fd5b919050565b6000806000606084860312156100af57600080fd5b6100b88461007e565b92506100c66020850161007e565b91506100d46040850161007e565b90509250925092565b610de9806100ec6000396000f3fe608060405234801561001057600080fd5b506004361061010b5760003560e01c80636b2521c4116100a25780638dd95002116100715780638dd950021461023c578063a78296941461024f578063c45a015514610262578063d52bb6f414610275578063e4ebc0a61461029d57600080fd5b80636b2521c4146101f057806377c784d41461020357806381e8d632146102165780638da5cb5b1461022957600080fd5b80633ec9f61d116100de5780633ec9f61d146101715780633f54f3d61461018457806341976e0914610197578063484f4ea9146101c557600080fd5b8063120a20a61461011057806313af4035146101365780631b3809a51461014b5780631f0e3a521461015e575b600080fd5b61012361011e366004610b0d565b6102b0565b6040519081526020015b60405180910390f35b610149610144366004610b37565b6102ea565b005b610123610159366004610b0d565b61036b565b61012361016c366004610b37565b61038e565b61012361017f366004610b59565b610452565b610123610192366004610b0d565b610487565b6101aa6101a5366004610b37565b6104aa565b6040805193845260208401929092529082015260600161012d565b6002546101d8906001600160a01b031681565b6040516001600160a01b03909116815260200161012d565b6101236101fe366004610b37565b61057f565b6101aa610211366004610b0d565b6105fa565b610123610224366004610b0d565b610664565b6003546101d8906001600160a01b031681565b6001546101d8906001600160a01b031681565b61012361025d366004610b37565b610686565b6000546101d8906001600160a01b031681565b610288610283366004610b95565b6106ed565b6040805192835260208301919091520161012d565b6101236102ab366004610b37565b610712565b60008054600154829182916102d2916001600160a01b03908116911687610731565b915091506102e1848383610807565b95945050505050565b6003546001600160a01b031633146103495760405162461bcd60e51b815260206004820152601860248201527f6d73672073656e6465723a206973206e6f74206f776e6572000000000000000060448201526064015b60405180910390fd5b600380546001600160a01b0319166001600160a01b0392909216919091179055565b60008054600154829182916102d2916001600160a01b0390811691889116610731565b60008054600254829182916103b0916001600160a01b03908116911686610731565b915091506000600260009054906101000a90046001600160a01b03166001600160a01b031663313ce5676040518163ffffffff1660e01b8152600401602060405180830381865afa158015610409573d6000803e3d6000fd5b505050506040513d601f19601f8201168201806040525081019061042d9190610bc8565b60ff1690506102e161044082600a610ce7565b61044b906001610cf3565b8484610807565b600080548190819061046e906001600160a01b03168787610731565b9150915061047d848383610807565b9695505050505050565b60008054600254829182916102d2916001600160a01b0390811691889116610731565b6000805460015482918291829182916104d1916001600160a01b0390811691899116610731565b915091506000866001600160a01b031663313ce5676040518163ffffffff1660e01b8152600401602060405180830381865afa158015610515573d6000803e3d6000fd5b505050506040513d601f19601f820116820180604052508101906105399190610bc8565b60ff16905061054c61044082600a610ce7565b600054600154600254929850610572926001600160a01b03928316929182169116610731565b9698909750945050505050565b60008054600154829182916105a1916001600160a01b03908116911686610731565b915091506000600160009054906101000a90046001600160a01b03166001600160a01b031663313ce5676040518163ffffffff1660e01b8152600401602060405180830381865afa158015610409573d6000803e3d6000fd5b600080546001548291829182918291610621916001600160a01b03908116918a9116610731565b91509150610630868383610807565b600054600154600254929750610656926001600160a01b03928316929182169116610731565b959890975094955050505050565b60008054600254829182916102d2916001600160a01b03908116911687610731565b60008054600254829182916106a9916001600160a01b0390811691879116610731565b915091506000846001600160a01b031663313ce5676040518163ffffffff1660e01b8152600401602060405180830381865afa158015610409573d6000803e3d6000fd5b600080548190610707906001600160a01b03168585610731565b909590945092505050565b60008054600154829182916106a9916001600160a01b03908116918791165b60008060006107408585610923565b50905061074e868686610a18565b5060008061075d888888610a18565b6001600160a01b0316630902f1ac6040518163ffffffff1660e01b8152600401606060405180830381865afa15801561079a573d6000803e3d6000fd5b505050506040513d601f19601f820116820180604052508101906107be9190610d29565b506001600160701b031691506001600160701b03169150826001600160a01b0316876001600160a01b0316146107f55780826107f8565b81815b90999098509650505050505050565b600080841161086a5760405162461bcd60e51b815260206004820152602960248201527f50616e63616b654c6962726172793a20494e53554646494349454e545f494e50604482015268155517d05353d5539560ba1b6064820152608401610340565b60008311801561087a5750600082115b6108d55760405162461bcd60e51b815260206004820152602660248201527f50616e63616b654c6962726172793a20494e53554646494349454e545f4c495160448201526555494449545960d01b6064820152608401610340565b60006108e3856126fc610cf3565b905060006108f18483610cf3565b905060008261090287612710610cf3565b61090c9190610d79565b90506109188183610d91565b979650505050505050565b600080826001600160a01b0316846001600160a01b0316036109935760405162461bcd60e51b815260206004820152602360248201527f50616e63616b654c6962726172793a204944454e544943414c5f41444452455360448201526253455360e81b6064820152608401610340565b826001600160a01b0316846001600160a01b0316106109b35782846109b6565b83835b90925090506001600160a01b038216610a115760405162461bcd60e51b815260206004820152601c60248201527f50616e63616b654c6962726172793a205a45524f5f41444452455353000000006044820152606401610340565b9250929050565b6000806000610a278585610923565b6040516bffffffffffffffffffffffff19606084811b8216602084015283901b1660348201529193509150869060480160405160208183030381529060405280519060200120604051602001610acf9291906001600160f81b0319815260609290921b6bffffffffffffffffffffffff1916600183015260158201527fbf110cb3d6e36544f84d8b3383057b9c7f2cdf826e27d4af93831ff318d4d550603582015260550190565b60408051601f1981840301815291905280516020909101209695505050505050565b80356001600160a01b0381168114610b0857600080fd5b919050565b60008060408385031215610b2057600080fd5b610b2983610af1565b946020939093013593505050565b600060208284031215610b4957600080fd5b610b5282610af1565b9392505050565b600080600060608486031215610b6e57600080fd5b610b7784610af1565b9250610b8560208501610af1565b9150604084013590509250925092565b60008060408385031215610ba857600080fd5b610bb183610af1565b9150610bbf60208401610af1565b90509250929050565b600060208284031215610bda57600080fd5b815160ff81168114610b5257600080fd5b634e487b7160e01b600052601160045260246000fd5b600181815b80851115610c3c578160001904821115610c2257610c22610beb565b80851615610c2f57918102915b93841c9390800290610c06565b509250929050565b600082610c5357506001610ce1565b81610c6057506000610ce1565b8160018114610c765760028114610c8057610c9c565b6001915050610ce1565b60ff841115610c9157610c91610beb565b50506001821b610ce1565b5060208310610133831016604e8410600b8410161715610cbf575081810a610ce1565b610cc98383610c01565b8060001904821115610cdd57610cdd610beb565b0290505b92915050565b6000610b528383610c44565b6000816000190483118215151615610d0d57610d0d610beb565b500290565b80516001600160701b0381168114610b0857600080fd5b600080600060608486031215610d3e57600080fd5b610d4784610d12565b9250610d5560208501610d12565b9150604084015163ffffffff81168114610d6e57600080fd5b809150509250925092565b60008219821115610d8c57610d8c610beb565b500190565b600082610dae57634e487b7160e01b600052601260045260246000fd5b50049056fea2646970667358221220c5a929075b7e170c5b8786cc937758584cbcda69f82e269905f66cde8287c35a64736f6c634300080e0033",
  "linkReferences": {},
  "deployedLinkReferences": {}
}