{
  "_format": "hh-sol-artifact-1",
  "contractName": "TiFiRouter",
  "sourceName": "contracts/TifiRouter.sol",
  "abi": [
    {
      "inputs": [
        {
          "internalType": "address",
          "name": "_factory",
          "type": "address"
        },
        {
          "internalType": "address",
          "name": "_WETH",
          "type": "address"
        },
        {
          "internalType": "address",
          "name": "_TiFi",
          "type": "address"
        }
      ],
      "stateMutability": "nonpayable",
      "type": "constructor"
    },
    {
      "anonymous": false,
      "inputs": [
        {
          "indexed": true,
          "internalType": "address",
          "name": "previousOwner",
          "type": "address"
        },
        {
          "indexed": true,
          "internalType": "address",
          "name": "newOwner",
          "type": "address"
        }
      ],
      "name": "OwnershipTransferred",
      "type": "event"
    },
    {
      "inputs": [],
      "name": "LPfeeReceiver",
      "outputs": [
        {
          "internalType": "address",
          "name": "",
          "type": "address"
        }
      ],
      "stateMutability": "view",
      "type": "function"
    },
    {
      "inputs": [],
      "name": "LPreceiverETHFee",
      "outputs": [
        {
          "internalType": "uint256",
          "name": "",
          "type": "uint256"
        }
      ],
      "stateMutability": "view",
      "type": "function"
    },
    {
      "inputs": [],
      "name": "WETH",
      "outputs": [
        {
          "internalType": "address",
          "name": "",
          "type": "address"
        }
      ],
      "stateMutability": "view",
      "type": "function"
    },
    {
      "inputs": [
        {
          "internalType": "uint256",
          "name": "amount",
          "type": "uint256"
        }
      ],
      "name": "_feeAmount",
      "outputs": [
        {
          "internalType": "uint256",
          "name": "",
          "type": "uint256"
        }
      ],
      "stateMutability": "view",
      "type": "function"
    },
    {
      "inputs": [
        {
          "internalType": "address",
          "name": "tokenA",
          "type": "address"
        },
        {
          "internalType": "address",
          "name": "tokenB",
          "type": "address"
        },
        {
          "internalType": "uint256",
          "name": "amountADesired",
          "type": "uint256"
        },
        {
          "internalType": "uint256",
          "name": "amountBDesired",
          "type": "uint256"
        },
        {
          "internalType": "uint256",
          "name": "amountAMin",
          "type": "uint256"
        },
        {
          "internalType": "uint256",
          "name": "amountBMin",
          "type": "uint256"
        },
        {
          "internalType": "address",
          "name": "to",
          "type": "address"
        },
        {
          "internalType": "uint256",
          "name": "deadline",
          "type": "uint256"
        }
      ],
      "name": "addLiquidity",
      "outputs": [
        {
          "internalType": "uint256",
          "name": "amountA",
          "type": "uint256"
        },
        {
          "internalType": "uint256",
          "name": "amountB",
          "type": "uint256"
        },
        {
          "internalType": "uint256",
          "name": "liquidity",
          "type": "uint256"
        }
      ],
      "stateMutability": "nonpayable",
      "type": "function"
    },
    {
      "inputs": [
        {
          "internalType": "address",
          "name": "token",
          "type": "address"
        },
        {
          "internalType": "uint256",
          "name": "amountTokenDesired",
          "type": "uint256"
        },
        {
          "internalType": "uint256",
          "name": "amountTokenMin",
          "type": "uint256"
        },
        {
          "internalType": "uint256",
          "name": "amountETHMin",
          "type": "uint256"
        },
        {
          "internalType": "address",
          "name": "to",
          "type": "address"
        },
        {
          "internalType": "uint256",
          "name": "deadline",
          "type": "uint256"
        }
      ],
      "name": "addLiquidityETH",
      "outputs": [
        {
          "internalType": "uint256",
          "name": "amountToken",
          "type": "uint256"
        },
        {
          "internalType": "uint256",
          "name": "amountETH",
          "type": "uint256"
        },
        {
          "internalType": "uint256",
          "name": "liquidity",
          "type": "uint256"
        }
      ],
      "stateMutability": "payable",
      "type": "function"
    },
    {
      "inputs": [],
      "name": "factory",
      "outputs": [
        {
          "internalType": "address",
          "name": "",
          "type": "address"
        }
      ],
      "stateMutability": "view",
      "type": "function"
    },
    {
      "inputs": [],
      "name": "feeOFF",
      "outputs": [
        {
          "internalType": "bool",
          "name": "",
          "type": "bool"
        }
      ],
      "stateMutability": "view",
      "type": "function"
    },
    {
      "inputs": [],
      "name": "feeReceiver",
      "outputs": [
        {
          "internalType": "address",
          "name": "",
          "type": "address"
        }
      ],
      "stateMutability": "view",
      "type": "function"
    },
    {
      "inputs": [
        {
          "internalType": "uint256",
          "name": "amountOut",
          "type": "uint256"
        },
        {
          "internalType": "uint256",
          "name": "reserveIn",
          "type": "uint256"
        },
        {
          "internalType": "uint256",
          "name": "reserveOut",
          "type": "uint256"
        }
      ],
      "name": "getAmountIn",
      "outputs": [
        {
          "internalType": "uint256",
          "name": "amountIn",
          "type": "uint256"
        }
      ],
      "stateMutability": "pure",
      "type": "function"
    },
    {
      "inputs": [
        {
          "internalType": "uint256",
          "name": "amountIn",
          "type": "uint256"
        },
        {
          "internalType": "uint256",
          "name": "reserveIn",
          "type": "uint256"
        },
        {
          "internalType": "uint256",
          "name": "reserveOut",
          "type": "uint256"
        }
      ],
      "name": "getAmountOut",
      "outputs": [
        {
          "internalType": "uint256",
          "name": "amountOut",
          "type": "uint256"
        }
      ],
      "stateMutability": "pure",
      "type": "function"
    },
    {
      "inputs": [
        {
          "internalType": "uint256",
          "name": "amountOut",
          "type": "uint256"
        },
        {
          "internalType": "address[]",
          "name": "path",
          "type": "address[]"
        }
      ],
      "name": "getAmountsIn",
      "outputs": [
        {
          "internalType": "uint256[]",
          "name": "amounts",
          "type": "uint256[]"
        }
      ],
      "stateMutability": "view",
      "type": "function"
    },
    {
      "inputs": [
        {
          "internalType": "uint256",
          "name": "amountIn",
          "type": "uint256"
        },
        {
          "internalType": "address[]",
          "name": "path",
          "type": "address[]"
        }
      ],
      "name": "getAmountsOut",
      "outputs": [
        {
          "internalType": "uint256[]",
          "name": "amounts",
          "type": "uint256[]"
        }
      ],
      "stateMutability": "view",
      "type": "function"
    },
    {
      "inputs": [],
      "name": "owner",
      "outputs": [
        {
          "internalType": "address",
          "name": "",
          "type": "address"
        }
      ],
      "stateMutability": "view",
      "type": "function"
    },
    {
      "inputs": [
        {
          "internalType": "uint256",
          "name": "amountA",
          "type": "uint256"
        },
        {
          "internalType": "uint256",
          "name": "reserveA",
          "type": "uint256"
        },
        {
          "internalType": "uint256",
          "name": "reserveB",
          "type": "uint256"
        }
      ],
      "name": "quote",
      "outputs": [
        {
          "internalType": "uint256",
          "name": "amountB",
          "type": "uint256"
        }
      ],
      "stateMutability": "pure",
      "type": "function"
    },
    {
      "inputs": [],
      "name": "receiverETHFee",
      "outputs": [
        {
          "internalType": "uint256",
          "name": "",
          "type": "uint256"
        }
      ],
      "stateMutability": "view",
      "type": "function"
    },
    {
      "inputs": [
        {
          "internalType": "address",
          "name": "tokenA",
          "type": "address"
        },
        {
          "internalType": "address",
          "name": "tokenB",
          "type": "address"
        },
        {
          "internalType": "uint256",
          "name": "liquidity",
          "type": "uint256"
        },
        {
          "internalType": "uint256",
          "name": "amountAMin",
          "type": "uint256"
        },
        {
          "internalType": "uint256",
          "name": "amountBMin",
          "type": "uint256"
        },
        {
          "internalType": "address",
          "name": "to",
          "type": "address"
        },
        {
          "internalType": "uint256",
          "name": "deadline",
          "type": "uint256"
        }
      ],
      "name": "removeLiquidity",
      "outputs": [
        {
          "internalType": "uint256",
          "name": "amountA",
          "type": "uint256"
        },
        {
          "internalType": "uint256",
          "name": "amountB",
          "type": "uint256"
        }
      ],
      "stateMutability": "nonpayable",
      "type": "function"
    },
    {
      "inputs": [
        {
          "internalType": "address",
          "name": "token",
          "type": "address"
        },
        {
          "internalType": "uint256",
          "name": "liquidity",
          "type": "uint256"
        },
        {
          "internalType": "uint256",
          "name": "amountTokenMin",
          "type": "uint256"
        },
        {
          "internalType": "uint256",
          "name": "amountETHMin",
          "type": "uint256"
        },
        {
          "internalType": "address",
          "name": "to",
          "type": "address"
        },
        {
          "internalType": "uint256",
          "name": "deadline",
          "type": "uint256"
        }
      ],
      "name": "removeLiquidityETH",
      "outputs": [
        {
          "internalType": "uint256",
          "name": "amountToken",
          "type": "uint256"
        },
        {
          "internalType": "uint256",
          "name": "amountETH",
          "type": "uint256"
        }
      ],
      "stateMutability": "nonpayable",
      "type": "function"
    },
    {
      "inputs": [
        {
          "internalType": "address",
          "name": "token",
          "type": "address"
        },
        {
          "internalType": "uint256",
          "name": "liquidity",
          "type": "uint256"
        },
        {
          "internalType": "uint256",
          "name": "amountTokenMin",
          "type": "uint256"
        },
        {
          "internalType": "uint256",
          "name": "amountETHMin",
          "type": "uint256"
        },
        {
          "internalType": "address",
          "name": "to",
          "type": "address"
        },
        {
          "internalType": "uint256",
          "name": "deadline",
          "type": "uint256"
        },
        {
          "internalType": "bool",
          "name": "approveMax",
          "type": "bool"
        },
        {
          "internalType": "uint8",
          "name": "v",
          "type": "uint8"
        },
        {
          "internalType": "bytes32",
          "name": "r",
          "type": "bytes32"
        },
        {
          "internalType": "bytes32",
          "name": "s",
          "type": "bytes32"
        }
      ],
      "name": "removeLiquidityETHWithPermit",
      "outputs": [
        {
          "internalType": "uint256",
          "name": "amountToken",
          "type": "uint256"
        },
        {
          "internalType": "uint256",
          "name": "amountETH",
          "type": "uint256"
        }
      ],
      "stateMutability": "nonpayable",
      "type": "function"
    },
    {
      "inputs": [
        {
          "internalType": "address",
          "name": "tokenA",
          "type": "address"
        },
        {
          "internalType": "address",
          "name": "tokenB",
          "type": "address"
        },
        {
          "internalType": "uint256",
          "name": "liquidity",
          "type": "uint256"
        },
        {
          "internalType": "uint256",
          "name": "amountAMin",
          "type": "uint256"
        },
        {
          "internalType": "uint256",
          "name": "amountBMin",
          "type": "uint256"
        },
        {
          "internalType": "address",
          "name": "to",
          "type": "address"
        },
        {
          "internalType": "uint256",
          "name": "deadline",
          "type": "uint256"
        },
        {
          "internalType": "bool",
          "name": "approveMax",
          "type": "bool"
        },
        {
          "internalType": "uint8",
          "name": "v",
          "type": "uint8"
        },
        {
          "internalType": "bytes32",
          "name": "r",
          "type": "bytes32"
        },
        {
          "internalType": "bytes32",
          "name": "s",
          "type": "bytes32"
        }
      ],
      "name": "removeLiquidityWithPermit",
      "outputs": [
        {
          "internalType": "uint256",
          "name": "amountA",
          "type": "uint256"
        },
        {
          "internalType": "uint256",
          "name": "amountB",
          "type": "uint256"
        }
      ],
      "stateMutability": "nonpayable",
      "type": "function"
    },
    {
      "inputs": [
        {
          "internalType": "uint256",
          "name": "_receiverETHFee",
          "type": "uint256"
        }
      ],
      "name": "seReceiverFee",
      "outputs": [],
      "stateMutability": "nonpayable",
      "type": "function"
    },
    {
      "inputs": [
        {
          "internalType": "address",
          "name": "_factory",
          "type": "address"
        }
      ],
      "name": "setFactoryAddress",
      "outputs": [],
      "stateMutability": "nonpayable",
      "type": "function"
    },
    {
      "inputs": [
        {
          "internalType": "bool",
          "name": "_feeOFF",
          "type": "bool"
        }
      ],
      "name": "setFeeOFF",
      "outputs": [],
      "stateMutability": "nonpayable",
      "type": "function"
    },
    {
      "inputs": [
        {
          "internalType": "address",
          "name": "_feeReceiver",
          "type": "address"
        }
      ],
      "name": "setLPReceiverAddress",
      "outputs": [],
      "stateMutability": "nonpayable",
      "type": "function"
    },
    {
      "inputs": [
        {
          "internalType": "address",
          "name": "_feeReceiver",
          "type": "address"
        }
      ],
      "name": "setReceiverAddress",
      "outputs": [],
      "stateMutability": "nonpayable",
      "type": "function"
    },
    {
      "inputs": [
        {
          "internalType": "address",
          "name": "_tifi",
          "type": "address"
        }
      ],
      "name": "setTiFiAddress",
      "outputs": [],
      "stateMutability": "nonpayable",
      "type": "function"
    },
    {
      "inputs": [
        {
          "internalType": "address",
          "name": "_WETH",
          "type": "address"
        }
      ],
      "name": "setWETHAddress",
      "outputs": [],
      "stateMutability": "nonpayable",
      "type": "function"
    },
    {
      "inputs": [
        {
          "internalType": "uint256",
          "name": "_totalETHFee",
          "type": "uint256"
        }
      ],
      "name": "settotalETHFee",
      "outputs": [],
      "stateMutability": "nonpayable",
      "type": "function"
    },
    {
      "inputs": [
        {
          "internalType": "uint256",
          "name": "amountOut",
          "type": "uint256"
        },
        {
          "internalType": "address[]",
          "name": "path",
          "type": "address[]"
        },
        {
          "internalType": "address",
          "name": "to",
          "type": "address"
        },
        {
          "internalType": "uint256",
          "name": "deadline",
          "type": "uint256"
        }
      ],
      "name": "swapETHForExactTokens",
      "outputs": [
        {
          "internalType": "uint256[]",
          "name": "amounts",
          "type": "uint256[]"
        }
      ],
      "stateMutability": "payable",
      "type": "function"
    },
    {
      "inputs": [
        {
          "internalType": "uint256",
          "name": "amountOutMin",
          "type": "uint256"
        },
        {
          "internalType": "address[]",
          "name": "path",
          "type": "address[]"
        },
        {
          "internalType": "address",
          "name": "to",
          "type": "address"
        },
        {
          "internalType": "uint256",
          "name": "deadline",
          "type": "uint256"
        }
      ],
      "name": "swapExactETHForTokens",
      "outputs": [
        {
          "internalType": "uint256[]",
          "name": "amounts",
          "type": "uint256[]"
        }
      ],
      "stateMutability": "payable",
      "type": "function"
    },
    {
      "inputs": [
        {
          "internalType": "uint256",
          "name": "amountOutMin",
          "type": "uint256"
        },
        {
          "internalType": "address[]",
          "name": "path",
          "type": "address[]"
        },
        {
          "internalType": "address",
          "name": "to",
          "type": "address"
        },
        {
          "internalType": "uint256",
          "name": "deadline",
          "type": "uint256"
        }
      ],
      "name": "swapExactETHForTokensSupportingFeeOnTransferTokens",
      "outputs": [],
      "stateMutability": "payable",
      "type": "function"
    },
    {
      "inputs": [
        {
          "internalType": "uint256",
          "name": "amountIn",
          "type": "uint256"
        },
        {
          "internalType": "uint256",
          "name": "amountOutMin",
          "type": "uint256"
        },
        {
          "internalType": "address[]",
          "name": "path",
          "type": "address[]"
        },
        {
          "internalType": "address",
          "name": "to",
          "type": "address"
        },
        {
          "internalType": "uint256",
          "name": "deadline",
          "type": "uint256"
        }
      ],
      "name": "swapExactTokensForETH",
      "outputs": [
        {
          "internalType": "uint256[]",
          "name": "amounts",
          "type": "uint256[]"
        }
      ],
      "stateMutability": "nonpayable",
      "type": "function"
    },
    {
      "inputs": [
        {
          "internalType": "uint256",
          "name": "amountIn",
          "type": "uint256"
        },
        {
          "internalType": "uint256",
          "name": "amountOutMin",
          "type": "uint256"
        },
        {
          "internalType": "address[]",
          "name": "path",
          "type": "address[]"
        },
        {
          "internalType": "address",
          "name": "to",
          "type": "address"
        },
        {
          "internalType": "uint256",
          "name": "deadline",
          "type": "uint256"
        }
      ],
      "name": "swapExactTokensForETHSupportingFeeOnTransferTokens",
      "outputs": [],
      "stateMutability": "nonpayable",
      "type": "function"
    },
    {
      "inputs": [
        {
          "internalType": "uint256",
          "name": "amountIn",
          "type": "uint256"
        },
        {
          "internalType": "uint256",
          "name": "amountOutMin",
          "type": "uint256"
        },
        {
          "internalType": "address[]",
          "name": "path",
          "type": "address[]"
        },
        {
          "internalType": "address",
          "name": "to",
          "type": "address"
        },
        {
          "internalType": "uint256",
          "name": "deadline",
          "type": "uint256"
        }
      ],
      "name": "swapExactTokensForTokens",
      "outputs": [
        {
          "internalType": "uint256[]",
          "name": "amounts",
          "type": "uint256[]"
        }
      ],
      "stateMutability": "nonpayable",
      "type": "function"
    },
    {
      "inputs": [
        {
          "internalType": "uint256",
          "name": "amountIn",
          "type": "uint256"
        },
        {
          "internalType": "uint256",
          "name": "amountOutMin",
          "type": "uint256"
        },
        {
          "internalType": "address[]",
          "name": "path",
          "type": "address[]"
        },
        {
          "internalType": "address",
          "name": "to",
          "type": "address"
        },
        {
          "internalType": "uint256",
          "name": "deadline",
          "type": "uint256"
        }
      ],
      "name": "swapExactTokensForTokensSupportingFeeOnTransferTokens",
      "outputs": [],
      "stateMutability": "nonpayable",
      "type": "function"
    },
    {
      "inputs": [
        {
          "internalType": "uint256",
          "name": "amountOut",
          "type": "uint256"
        },
        {
          "internalType": "uint256",
          "name": "amountInMax",
          "type": "uint256"
        },
        {
          "internalType": "address[]",
          "name": "path",
          "type": "address[]"
        },
        {
          "internalType": "address",
          "name": "to",
          "type": "address"
        },
        {
          "internalType": "uint256",
          "name": "deadline",
          "type": "uint256"
        }
      ],
      "name": "swapTokensForExactETH",
      "outputs": [
        {
          "internalType": "uint256[]",
          "name": "amounts",
          "type": "uint256[]"
        }
      ],
      "stateMutability": "nonpayable",
      "type": "function"
    },
    {
      "inputs": [
        {
          "internalType": "uint256",
          "name": "amountOut",
          "type": "uint256"
        },
        {
          "internalType": "uint256",
          "name": "amountInMax",
          "type": "uint256"
        },
        {
          "internalType": "address[]",
          "name": "path",
          "type": "address[]"
        },
        {
          "internalType": "address",
          "name": "to",
          "type": "address"
        },
        {
          "internalType": "uint256",
          "name": "deadline",
          "type": "uint256"
        }
      ],
      "name": "swapTokensForExactTokens",
      "outputs": [
        {
          "internalType": "uint256[]",
          "name": "amounts",
          "type": "uint256[]"
        }
      ],
      "stateMutability": "nonpayable",
      "type": "function"
    },
    {
      "inputs": [],
      "name": "tifi",
      "outputs": [
        {
          "internalType": "address",
          "name": "",
          "type": "address"
        }
      ],
      "stateMutability": "view",
      "type": "function"
    },
    {
      "inputs": [],
      "name": "totalETHFee",
      "outputs": [
        {
          "internalType": "uint256",
          "name": "",
          "type": "uint256"
        }
      ],
      "stateMutability": "view",
      "type": "function"
    },
    {
      "inputs": [
        {
          "internalType": "address",
          "name": "newOwner",
          "type": "address"
        }
      ],
      "name": "transferOwnership",
      "outputs": [],
      "stateMutability": "nonpayable",
      "type": "function"
    },
    {
      "stateMutability": "payable",
      "type": "receive"
    }
  ],
  "bytecode": "0x60806040526014600655600a60078190556008556009805460ff191690553480156200002a57600080fd5b5060405162004597380380620045978339810160408190526200004d91620000ce565b600080546001600160a01b03199081166001600160a01b039586161790915560018054821693851693909317909255600280548316919093161790915560048054339083168117909155600580548316821790556003805490921617905562000118565b80516001600160a01b0381168114620000c957600080fd5b919050565b600080600060608486031215620000e457600080fd5b620000ef84620000b1565b9250620000ff60208501620000b1565b91506200010f60408501620000b1565b90509250925092565b61446f80620001286000396000f3fe60806040526004361061023f5760003560e01c806385f8c2591161012e578063baa2abde116100ab578063e8e337001161006f578063e8e33700146106e4578063ec18c51d1461071f578063f2fde38b1461073f578063f305d7191461075f578063fb3bdb411461077257600080fd5b8063baa2abde14610644578063c45a015514610664578063c80f591a14610684578063d06ca61f146106a4578063ded9382a146106c457600080fd5b8063ad615dec116100f2578063ad615dec146105bb578063b2fe7ffb146105db578063b3f00674146105f1578063b6f9de9514610611578063b80547e21461062457600080fd5b806385f8c2591461051b5780638723ed101461053b5780638803dbee1461055b5780638da5cb5b1461057b578063ad5c46481461059b57600080fd5b806350f87192116101bc578063791ac94711610180578063791ac9471461047e5780637ff36ab51461049e578063808f6cf5146104b15780638279c7db146104db57806383c17c55146104fb57600080fd5b806350f87192146103d05780635510ece8146103e65780635c11d7951461040657806361804ebb146104265780636a4234eb1461045e57600080fd5b80633396942a116102035780633396942a1461033a57806338ed17391461035a5780634a25d94a1461037a5780634c8ba4f31461039a5780634f010cd7146103b057600080fd5b806302751cec14610265578063054d50d41461029f57806318cbafe5146102cd5780631f00ca74146102fa5780632195995c1461031a57600080fd5b36610260576001546001600160a01b0316331461025e5761025e6139d4565b005b600080fd5b34801561027157600080fd5b50610285610280366004613a12565b610785565b604080519283526020830191909152015b60405180910390f35b3480156102ab57600080fd5b506102bf6102ba366004613a70565b610852565b604051908152602001610296565b3480156102d957600080fd5b506102ed6102e8366004613ae1565b610867565b6040516102969190613b54565b34801561030657600080fd5b506102ed610315366004613bae565b610c0a565b34801561032657600080fd5b50610285610335366004613c9e565b610c2b565b34801561034657600080fd5b506102bf610355366004613d48565b610cf0565b34801561036657600080fd5b506102ed610375366004613ae1565b610d27565b34801561038657600080fd5b506102ed610395366004613ae1565b610e3c565b3480156103a657600080fd5b506102bf60065481565b3480156103bc57600080fd5b5061025e6103cb366004613d48565b610f4b565b3480156103dc57600080fd5b506102bf60085481565b3480156103f257600080fd5b5061025e610401366004613d61565b610f7a565b34801561041257600080fd5b5061025e610421366004613ae1565b610fb7565b34801561043257600080fd5b50600254610446906001600160a01b031681565b6040516001600160a01b039091168152602001610296565b34801561046a57600080fd5b5061025e610479366004613d7e565b611206565b34801561048a57600080fd5b5061025e610499366004613ae1565b611252565b6102ed6104ac366004613d9b565b6114f5565b3480156104bd57600080fd5b506009546104cb9060ff1681565b6040519015158152602001610296565b3480156104e757600080fd5b5061025e6104f6366004613d7e565b611824565b34801561050757600080fd5b5061025e610516366004613d7e565b611870565b34801561052757600080fd5b506102bf610536366004613a70565b6118bc565b34801561054757600080fd5b50600554610446906001600160a01b031681565b34801561056757600080fd5b506102ed610576366004613ae1565b6118c9565b34801561058757600080fd5b50600354610446906001600160a01b031681565b3480156105a757600080fd5b50600154610446906001600160a01b031681565b3480156105c757600080fd5b506102bf6105d6366004613a70565b6119b0565b3480156105e757600080fd5b506102bf60075481565b3480156105fd57600080fd5b50600454610446906001600160a01b031681565b61025e61061f366004613d9b565b6119bd565b34801561063057600080fd5b5061025e61063f366004613d7e565b611d82565b34801561065057600080fd5b5061028561065f366004613e02565b611dce565b34801561067057600080fd5b50600054610446906001600160a01b031681565b34801561069057600080fd5b5061025e61069f366004613d7e565b611f81565b3480156106b057600080fd5b506102ed6106bf366004613bae565b611fcd565b3480156106d057600080fd5b506102856106df366004613e74565b611fe7565b3480156106f057600080fd5b506107046106ff366004613f0a565b6120c2565b60408051938452602084019290925290820152606001610296565b34801561072b57600080fd5b5061025e61073a366004613d48565b6121ad565b34801561074b57600080fd5b5061025e61075a366004613d7e565b6121dc565b61070461076d366004613a12565b612275565b6102ed610780366004613d9b565b612469565b60008082428110156107b25760405162461bcd60e51b81526004016107a990613f86565b60405180910390fd5b6001546107ce908a906001600160a01b03168a8a8a308a611dce565b90935091506107de8986856127ec565b600154604051632e1a7d4d60e01b8152600481018490526001600160a01b0390911690632e1a7d4d90602401600060405180830381600087803b15801561082457600080fd5b505af1158015610838573d6000803e3d6000fd5b505050506108468583612907565b50965096945050505050565b600061085f8484846129d5565b949350505050565b6060814281101561088a5760405162461bcd60e51b81526004016107a990613f86565b600180546001600160a01b031690879087906108a69082613fc9565b8181106108b5576108b5613fe0565b90506020020160208101906108ca9190613d7e565b6001600160a01b0316146108f05760405162461bcd60e51b81526004016107a990613ff6565b600054604080516020808902828101820190935288825261093a936001600160a01b0316928c92918b918b91829190850190849080828437600092019190915250612ab292505050565b915086826001845161094c9190613fc9565b8151811061095c5761095c613fe0565b602002602001015110156109825760405162461bcd60e51b81526004016107a99061402d565b610a348686600081811061099857610998613fe0565b90506020020160208101906109ad9190613d7e565b600080543391610a14916001600160a01b0316908b908b90816109d2576109d2613fe0565b90506020020160208101906109e79190613d7e565b8b8b60018181106109fa576109fa613fe0565b9050602002016020810190610a0f9190613d7e565b612c3d565b85600081518110610a2757610a27613fe0565b6020026020010151612d16565b610a7382878780806020026020016040519081016040528093929190818152602001838360200280828437600092019190915250309250612e46915050565b6000610aa48360018551610a879190613fc9565b81518110610a9757610a97613fe0565b6020026020010151610cf0565b90506000818460018651610ab89190613fc9565b81518110610ac857610ac8613fe0565b6020026020010151610ada9190613fc9565b90508115610b9557600154604051632e1a7d4d60e01b8152600481018490526001600160a01b0390911690632e1a7d4d90602401600060405180830381600087803b158015610b2857600080fd5b505af1158015610b3c573d6000803e3d6000fd5b5050600454600654600754610b7394506001600160a01b03909216925090610b649086614073565b610b6e9190614092565b612907565b600554600654600854610b95926001600160a01b03169190610b649086614073565b600154604051632e1a7d4d60e01b8152600481018390526001600160a01b0390911690632e1a7d4d90602401600060405180830381600087803b158015610bdb57600080fd5b505af1158015610bef573d6000803e3d6000fd5b50505050610bfd8682612907565b5050509695505050505050565b600054606090610c24906001600160a01b03168484613027565b9392505050565b6000805481908190610c47906001600160a01b03168f8f612c3d565b9050600087610c56578c610c5a565b6000195b60405163d505accf60e01b81529091506001600160a01b0383169063d505accf90610c95903390309086908f908e908e908e906004016140b4565b600060405180830381600087803b158015610caf57600080fd5b505af1158015610cc3573d6000803e3d6000fd5b50505050610cd68f8f8f8f8f8f8f611dce565b809450819550505050509b509b9950505050505050505050565b60095460009060ff161515600103610d0a57506000919050565b600061271060065484610d1d9190614073565b610c249190614092565b60608142811015610d4a5760405162461bcd60e51b81526004016107a990613f86565b6000546040805160208089028281018201909352888252610d94936001600160a01b0316928c92918b918b91829190850190849080828437600092019190915250612ab292505050565b9150868260018451610da69190613fc9565b81518110610db657610db6613fe0565b60200260200101511015610ddc5760405162461bcd60e51b81526004016107a9906140f5565b610df28686600081811061099857610998613fe0565b610e3182878780806020026020016040519081016040528093929190818152602001838360200280828437600092019190915250899250612e46915050565b509695505050505050565b60608142811015610e5f5760405162461bcd60e51b81526004016107a990613f86565b600180546001600160a01b03169087908790610e7b9082613fc9565b818110610e8a57610e8a613fe0565b9050602002016020810190610e9f9190613d7e565b6001600160a01b031614610ec55760405162461bcd60e51b81526004016107a990613ff6565b6000546040805160208089028281018201909352888252610f0f936001600160a01b0316928c92918b918b9182919085019084908082843760009201919091525061302792505050565b91508682600081518110610f2557610f25613fe0565b602002602001015111156109825760405162461bcd60e51b81526004016107a99061413e565b6003546001600160a01b03163314610f755760405162461bcd60e51b81526004016107a990614180565b600755565b6003546001600160a01b03163314610fa45760405162461bcd60e51b81526004016107a990614180565b6009805460ff1916911515919091179055565b8042811015610fd85760405162461bcd60e51b81526004016107a990613f86565b61105685856000818110610fee57610fee613fe0565b90506020020160208101906110039190613d7e565b600080543391611050916001600160a01b0316908a908a908161102857611028613fe0565b905060200201602081019061103d9190613d7e565b8a8a60018181106109fa576109fa613fe0565b8a612d16565b60008585611065600182613fc9565b81811061107457611074613fe0565b90506020020160208101906110899190613d7e565b6040516370a0823160e01b81526001600160a01b03868116600483015291909116906370a0823190602401602060405180830381865afa1580156110d1573d6000803e3d6000fd5b505050506040513d601f19601f820116820180604052508101906110f591906141ad565b90506111358686808060200260200160405190810160405280939291908181526020018383602002808284376000920191909152508892506131a8915050565b86818787611144600182613fc9565b81811061115357611153613fe0565b90506020020160208101906111689190613d7e565b6040516370a0823160e01b81526001600160a01b03888116600483015291909116906370a0823190602401602060405180830381865afa1580156111b0573d6000803e3d6000fd5b505050506040513d601f19601f820116820180604052508101906111d491906141ad565b6111de9190613fc9565b10156111fc5760405162461bcd60e51b81526004016107a9906140f5565b5050505050505050565b6003546001600160a01b031633146112305760405162461bcd60e51b81526004016107a990614180565b600180546001600160a01b0319166001600160a01b0392909216919091179055565b80428110156112735760405162461bcd60e51b81526004016107a990613f86565b600180546001600160a01b0316908690869061128f9082613fc9565b81811061129e5761129e613fe0565b90506020020160208101906112b39190613d7e565b6001600160a01b0316146112d95760405162461bcd60e51b81526004016107a990613ff6565b6112ef85856000818110610fee57610fee613fe0565b61132d8585808060200260200160405190810160405280939291908181526020018383602002808284376000920191909152503092506131a8915050565b6001546040516370a0823160e01b81523060048201526000916001600160a01b0316906370a0823190602401602060405180830381865afa158015611376573d6000803e3d6000fd5b505050506040513d601f19601f8201168201806040525081019061139a91906141ad565b9050868110156113bc5760405162461bcd60e51b81526004016107a99061402d565b60006113c782610cf0565b905060006113d58284613fc9565b9050811561148157600154604051632e1a7d4d60e01b8152600481018490526001600160a01b0390911690632e1a7d4d90602401600060405180830381600087803b15801561142357600080fd5b505af1158015611437573d6000803e3d6000fd5b505060045460065460075461145f94506001600160a01b03909216925090610b649086614073565b600554600654600854611481926001600160a01b03169190610b649086614073565b600154604051632e1a7d4d60e01b8152600481018390526001600160a01b0390911690632e1a7d4d90602401600060405180830381600087803b1580156114c757600080fd5b505af11580156114db573d6000803e3d6000fd5b505050506114e98682612907565b50505050505050505050565b606081428110156115185760405162461bcd60e51b81526004016107a990613f86565b6001546001600160a01b0316868660008161153557611535613fe0565b905060200201602081019061154a9190613d7e565b6001600160a01b0316146115705760405162461bcd60e51b81526004016107a990613ff6565b34600061157c82610cf0565b9050600061158a8284613fc9565b90506115dd60008054906101000a90046001600160a01b0316828b8b80806020026020016040519081016040528093929190818152602001838360200280828437600092019190915250612ab292505050565b94508985600187516115ef9190613fc9565b815181106115ff576115ff613fe0565b602002602001015110156116255760405162461bcd60e51b81526004016107a99061402d565b60015485516001600160a01b039091169063d0e30db090879060009061164d5761164d613fe0565b60200260200101516040518263ffffffff1660e01b81526004016000604051808303818588803b15801561168057600080fd5b505af1158015611694573d6000803e3d6000fd5b5050600154600080546001600160a01b03928316955063a9059cbb94506116f39350909116908d908d90816116cb576116cb613fe0565b90506020020160208101906116e09190613d7e565b8d8d60018181106109fa576109fa613fe0565b8760008151811061170657611706613fe0565b60200260200101516040518363ffffffff1660e01b815260040161173f9291906001600160a01b03929092168252602082015260400190565b6020604051808303816000875af115801561175e573d6000803e3d6000fd5b505050506040513d601f19601f8201168201806040525081019061178291906141c6565b61178e5761178e6139d4565b6117cd858a8a808060200260200160405190810160405280939291908181526020018383602002808284376000920191909152508c9250612e46915050565b8115611817576004546006546007546117f5926001600160a01b03169190610b649086614073565b600554600654600854611817926001600160a01b03169190610b649086614073565b5050505095945050505050565b6003546001600160a01b0316331461184e5760405162461bcd60e51b81526004016107a990614180565b600480546001600160a01b0319166001600160a01b0392909216919091179055565b6003546001600160a01b0316331461189a5760405162461bcd60e51b81526004016107a990614180565b600080546001600160a01b0319166001600160a01b0392909216919091179055565b600061085f84848461345b565b606081428110156118ec5760405162461bcd60e51b81526004016107a990613f86565b6000546040805160208089028281018201909352888252611936936001600160a01b0316928c92918b918b9182919085019084908082843760009201919091525061302792505050565b9150868260008151811061194c5761194c613fe0565b60200260200101511115610ddc5760405162461bcd60e51b815260206004820152602560248201527f50616e63616b65526f757465723a204558434553534956455f494e5055545f416044820152641353d5539560da1b60648201526084016107a9565b600061085f84848461353e565b80428110156119de5760405162461bcd60e51b81526004016107a990613f86565b6001546001600160a01b031685856000816119fb576119fb613fe0565b9050602002016020810190611a109190613d7e565b6001600160a01b031614611a365760405162461bcd60e51b81526004016107a990613ff6565b346000611a4282610cf0565b90506000611a508284613fc9565b9050600160009054906101000a90046001600160a01b03166001600160a01b031663d0e30db0826040518263ffffffff1660e01b81526004016000604051808303818588803b158015611aa257600080fd5b505af1158015611ab6573d6000803e3d6000fd5b5050600154600080546001600160a01b03928316955063a9059cbb9450611b159350909116908c908c9081611aed57611aed613fe0565b9050602002016020810190611b029190613d7e565b8c8c60018181106109fa576109fa613fe0565b6040516001600160e01b031960e084901b1681526001600160a01b039091166004820152602481018490526044016020604051808303816000875af1158015611b62573d6000803e3d6000fd5b505050506040513d601f19601f82011682018060405250810190611b8691906141c6565b611b9257611b926139d4565b60008888611ba1600182613fc9565b818110611bb057611bb0613fe0565b9050602002016020810190611bc59190613d7e565b6040516370a0823160e01b81526001600160a01b03898116600483015291909116906370a0823190602401602060405180830381865afa158015611c0d573d6000803e3d6000fd5b505050506040513d601f19601f82011682018060405250810190611c3191906141ad565b9050611c718989808060200260200160405190810160405280939291908181526020018383602002808284376000920191909152508b92506131a8915050565b8215611cbb57600454600654600754611c99926001600160a01b03169190610b649087614073565b600554600654600854611cbb926001600160a01b03169190610b649087614073565b89818a8a611cca600182613fc9565b818110611cd957611cd9613fe0565b9050602002016020810190611cee9190613d7e565b6040516370a0823160e01b81526001600160a01b038b8116600483015291909116906370a0823190602401602060405180830381865afa158015611d36573d6000803e3d6000fd5b505050506040513d601f19601f82011682018060405250810190611d5a91906141ad565b611d649190613fc9565b10156114e95760405162461bcd60e51b81526004016107a99061402d565b6003546001600160a01b03163314611dac5760405162461bcd60e51b81526004016107a990614180565b600280546001600160a01b0319166001600160a01b0392909216919091179055565b6000808242811015611df25760405162461bcd60e51b81526004016107a990613f86565b60008054611e0a906001600160a01b03168c8c612c3d565b6040516323b872dd60e01b81523360048201526001600160a01b03821660248201819052604482018c90529192506323b872dd906064016020604051808303816000875af1158015611e60573d6000803e3d6000fd5b505050506040513d601f19601f82011682018060405250810190611e8491906141c6565b5060405163226bf2d160e21b81526001600160a01b03878116600483015260009182918416906389afcb449060240160408051808303816000875af1158015611ed1573d6000803e3d6000fd5b505050506040513d601f19601f82011682018060405250810190611ef591906141e3565b915091506000611f058e8e6135dc565b509050806001600160a01b03168e6001600160a01b031614611f28578183611f2b565b82825b90975095508a871015611f505760405162461bcd60e51b81526004016107a990614207565b89861015611f705760405162461bcd60e51b81526004016107a99061424b565b505050505097509795505050505050565b6003546001600160a01b03163314611fab5760405162461bcd60e51b81526004016107a990614180565b600580546001600160a01b0319166001600160a01b0392909216919091179055565b600054606090610c24906001600160a01b03168484612ab2565b600080600061201f60008054906101000a90046001600160a01b03168e600160009054906101000a90046001600160a01b0316612c3d565b905060008761202e578c612032565b6000195b60405163d505accf60e01b81529091506001600160a01b0383169063d505accf9061206d903390309086908f908e908e908e906004016140b4565b600060405180830381600087803b15801561208757600080fd5b505af115801561209b573d6000803e3d6000fd5b505050506120ad8e8e8e8e8e8e610785565b909f909e509c50505050505050505050505050565b600080600083428110156120e85760405162461bcd60e51b81526004016107a990613f86565b6120f68c8c8c8c8c8c6136d1565b6000805492965090945090612115906001600160a01b03168e8e612c3d565b90506121238d338388612d16565b61212f8c338387612d16565b6040516335313c2160e11b81526001600160a01b038881166004830152821690636a627842906024016020604051808303816000875af1158015612177573d6000803e3d6000fd5b505050506040513d601f19601f8201168201806040525081019061219b91906141ad565b92505050985098509895505050505050565b6003546001600160a01b031633146121d75760405162461bcd60e51b81526004016107a990614180565b600655565b6003546001600160a01b031633146122065760405162461bcd60e51b81526004016107a990614180565b6001600160a01b03811661221957600080fd5b6003546040516001600160a01b038084169216907f8be0079c531659141344cd1fd0a4f28419497f9722a3daafe3b4186f6b6457e090600090a3600380546001600160a01b0319166001600160a01b0392909216919091179055565b6000806000834281101561229b5760405162461bcd60e51b81526004016107a990613f86565b6001546122b6908b906001600160a01b03168b348c8c6136d1565b60008054600154939750919550916122dc916001600160a01b03908116918e9116612c3d565b90506122ea8b338388612d16565b600160009054906101000a90046001600160a01b03166001600160a01b031663d0e30db0856040518263ffffffff1660e01b81526004016000604051808303818588803b15801561233a57600080fd5b505af115801561234e573d6000803e3d6000fd5b505060015460405163a9059cbb60e01b81526001600160a01b038681166004830152602482018a9052909116935063a9059cbb925060440190506020604051808303816000875af11580156123a7573d6000803e3d6000fd5b505050506040513d601f19601f820116820180604052508101906123cb91906141c6565b6123d7576123d76139d4565b6040516335313c2160e11b81526001600160a01b038881166004830152821690636a627842906024016020604051808303816000875af115801561241f573d6000803e3d6000fd5b505050506040513d601f19601f8201168201806040525081019061244391906141ad565b92508334111561245b5761245b33610b6e8634613fc9565b505096509650969350505050565b6060814281101561248c5760405162461bcd60e51b81526004016107a990613f86565b6001546001600160a01b031686866000816124a9576124a9613fe0565b90506020020160208101906124be9190613d7e565b6001600160a01b0316146124e45760405162461bcd60e51b81526004016107a990613ff6565b60006127106006546124f69190614092565b612501906001613fc9565b61250b9089614092565b905061255e60008054906101000a90046001600160a01b03168289898080602002602001604051908101604052809392919081815260200183836020028082843760009201919091525061302792505050565b9250348360008151811061257457612574613fe0565b6020026020010151111561259a5760405162461bcd60e51b81526004016107a99061413e565b60015483516001600160a01b039091169063d0e30db09085906000906125c2576125c2613fe0565b60200260200101516040518263ffffffff1660e01b81526004016000604051808303818588803b1580156125f557600080fd5b505af1158015612609573d6000803e3d6000fd5b5050600154600080546001600160a01b03928316955063a9059cbb94506126409350909116908b908b90816109d2576109d2613fe0565b8560008151811061265357612653613fe0565b60200260200101516040518363ffffffff1660e01b815260040161268c9291906001600160a01b03929092168252602082015260400190565b6020604051808303816000875af11580156126ab573d6000803e3d6000fd5b505050506040513d601f19601f820116820180604052508101906126cf91906141c6565b6126db576126db6139d4565b61271a838888808060200260200160405190810160405280939291908181526020018383602002808284376000920191909152508a9250612e46915050565b600061273284600081518110610a9757610a97613fe0565b9050801561277e5760045460065460075461275c926001600160a01b03169190610b649085614073565b60055460065460085461277e926001600160a01b03169190610b649085614073565b8360008151811061279157612791613fe0565b602002602001015181346127a59190613fc9565b11156127e0576127e03382866000815181106127c3576127c3613fe0565b6020026020010151346127d69190613fc9565b610b6e9190613fc9565b50505095945050505050565b604080516001600160a01b038481166024830152604480830185905283518084039091018152606490920183526020820180516001600160e01b031663a9059cbb60e01b179052915160009283929087169161284891906142bb565b6000604051808303816000865af19150503d8060008114612885576040519150601f19603f3d011682016040523d82523d6000602084013e61288a565b606091505b50915091508180156128b45750805115806128b45750808060200190518101906128b491906141c6565b6129005760405162461bcd60e51b815260206004820152601f60248201527f5472616e7366657248656c7065723a205452414e534645525f4641494c45440060448201526064016107a9565b5050505050565b604080516000808252602082019092526001600160a01b03841690839060405161293191906142bb565b60006040518083038185875af1925050503d806000811461296e576040519150601f19603f3d011682016040523d82523d6000602084013e612973565b606091505b50509050806129d05760405162461bcd60e51b815260206004820152602360248201527f5472616e7366657248656c7065723a204554485f5452414e534645525f46414960448201526213115160ea1b60648201526084016107a9565b505050565b6000808411612a385760405162461bcd60e51b815260206004820152602960248201527f50616e63616b654c6962726172793a20494e53554646494349454e545f494e50604482015268155517d05353d5539560ba1b60648201526084016107a9565b600083118015612a485750600082115b612a645760405162461bcd60e51b81526004016107a9906142d7565b6000612a72856126fc614073565b90506000612a808483614073565b9050600082612a9187612710614073565b612a9b919061431d565b9050612aa78183614092565b979650505050505050565b6060600282511015612b065760405162461bcd60e51b815260206004820152601c60248201527f50616e63616b654c6962726172793a20494e56414c49445f504154480000000060448201526064016107a9565b815167ffffffffffffffff811115612b2057612b20613b98565b604051908082528060200260200182016040528015612b49578160200160208202803683370190505b5090508281600081518110612b6057612b60613fe0565b60200260200101818152505060005b60018351612b7d9190613fc9565b811015612c3557600080612bd087868581518110612b9d57612b9d613fe0565b602002602001015187866001612bb3919061431d565b81518110612bc357612bc3613fe0565b60200260200101516138fe565b91509150612bf8848481518110612be957612be9613fe0565b602002602001015183836129d5565b84612c0485600161431d565b81518110612c1457612c14613fe0565b60200260200101818152505050508080612c2d90614335565b915050612b6f565b509392505050565b6000806000612c4c85856135dc565b6040516bffffffffffffffffffffffff19606084811b8216602084015283901b1660348201529193509150869060480160405160208183030381529060405280519060200120604051602001612cf49291906001600160f81b0319815260609290921b6bffffffffffffffffffffffff1916600183015260158201527fbf110cb3d6e36544f84d8b3383057b9c7f2cdf826e27d4af93831ff318d4d550603582015260550190565b60408051601f1981840301815291905280516020909101209695505050505050565b604080516001600160a01b0385811660248301528481166044830152606480830185905283518084039091018152608490920183526020820180516001600160e01b03166323b872dd60e01b1790529151600092839290881691612d7a91906142bb565b6000604051808303816000865af19150503d8060008114612db7576040519150601f19603f3d011682016040523d82523d6000602084013e612dbc565b606091505b5091509150818015612de6575080511580612de6575080806020019051810190612de691906141c6565b612e3e5760405162461bcd60e51b8152602060048201526024808201527f5472616e7366657248656c7065723a205452414e534645525f46524f4d5f46416044820152631253115160e21b60648201526084016107a9565b505050505050565b60005b60018351612e579190613fc9565b81101561302157600080848381518110612e7357612e73613fe0565b602002602001015185846001612e89919061431d565b81518110612e9957612e99613fe0565b6020026020010151915091506000612eb183836135dc565b509050600087612ec286600161431d565b81518110612ed257612ed2613fe0565b60200260200101519050600080836001600160a01b0316866001600160a01b031614612f0057826000612f04565b6000835b91509150600060028a51612f189190613fc9565b8810612f245788612f5e565b600054612f5e906001600160a01b0316878c612f418c600261431d565b81518110612f5157612f51613fe0565b6020026020010151612c3d565b600054909150612f78906001600160a01b03168888612c3d565b6001600160a01b031663022c0d9f84848460006040519080825280601f01601f191660200182016040528015612fb5576020820181803683370190505b506040518563ffffffff1660e01b8152600401612fd5949392919061434e565b600060405180830381600087803b158015612fef57600080fd5b505af1158015613003573d6000803e3d6000fd5b5050505050505050505050808061301990614335565b915050612e49565b50505050565b606060028251101561307b5760405162461bcd60e51b815260206004820152601c60248201527f50616e63616b654c6962726172793a20494e56414c49445f504154480000000060448201526064016107a9565b815167ffffffffffffffff81111561309557613095613b98565b6040519080825280602002602001820160405280156130be578160200160208202803683370190505b5090508281600183516130d19190613fc9565b815181106130e1576130e1613fe0565b6020026020010181815250506000600183516130fd9190613fc9565b90505b8015612c35576000806131438786613119600187613fc9565b8151811061312957613129613fe0565b6020026020010151878681518110612bc357612bc3613fe0565b9150915061316b84848151811061315c5761315c613fe0565b6020026020010151838361345b565b84613177600186613fc9565b8151811061318757613187613fe0565b602002602001018181525050505080806131a09061439e565b915050613100565b60005b600183516131b99190613fc9565b8110156129d0576000808483815181106131d5576131d5613fe0565b6020026020010151858460016131eb919061431d565b815181106131fb576131fb613fe0565b602002602001015191509150600061321383836135dc565b506000805491925090613230906001600160a01b03168585612c3d565b9050600080600080846001600160a01b0316630902f1ac6040518163ffffffff1660e01b8152600401606060405180830381865afa158015613276573d6000803e3d6000fd5b505050506040513d601f19601f8201168201806040525081019061329a91906143cc565b506001600160701b031691506001600160701b03169150600080876001600160a01b03168a6001600160a01b0316146132d45782846132d7565b83835b6040516370a0823160e01b81526001600160a01b038a8116600483015292945090925083918c16906370a0823190602401602060405180830381865afa158015613325573d6000803e3d6000fd5b505050506040513d601f19601f8201168201806040525081019061334991906141ad565b6133539190613fc9565b95506133608683836129d5565b945050505050600080856001600160a01b0316886001600160a01b03161461338a5782600061338e565b6000835b91509150600060028c516133a29190613fc9565b8a106133ae578a6133cb565b6000546133cb906001600160a01b0316898e612f418e600261431d565b6040805160008152602081019182905263022c0d9f60e01b9091529091506001600160a01b0387169063022c0d9f9061340d908690869086906024810161434e565b600060405180830381600087803b15801561342757600080fd5b505af115801561343b573d6000803e3d6000fd5b50505050505050505050505050808061345390614335565b9150506131ab565b60008084116134bf5760405162461bcd60e51b815260206004820152602a60248201527f50616e63616b654c6962726172793a20494e53554646494349454e545f4f555460448201526914155517d05353d5539560b21b60648201526084016107a9565b6000831180156134cf5750600082115b6134eb5760405162461bcd60e51b81526004016107a9906142d7565b60006134f78585614073565b61350390612710614073565b905060006135118685613fc9565b61351d906126fc614073565b90506135298183614092565b61353490600161431d565b9695505050505050565b600080841161359b5760405162461bcd60e51b815260206004820152602360248201527f50616e63616b654c6962726172793a20494e53554646494349454e545f414d4f60448201526215539560ea1b60648201526084016107a9565b6000831180156135ab5750600082115b6135c75760405162461bcd60e51b81526004016107a9906142d7565b826135d28386614073565b61085f9190614092565b600080826001600160a01b0316846001600160a01b03160361364c5760405162461bcd60e51b815260206004820152602360248201527f50616e63616b654c6962726172793a204944454e544943414c5f41444452455360448201526253455360e81b60648201526084016107a9565b826001600160a01b0316846001600160a01b03161061366c57828461366f565b83835b90925090506001600160a01b0382166136ca5760405162461bcd60e51b815260206004820152601c60248201527f50616e63616b654c6962726172793a205a45524f5f414444524553530000000060448201526064016107a9565b9250929050565b6000805460405163e6a4390560e01b81526001600160a01b03898116600483015288811660248301528392839291169063e6a4390590604401602060405180830381865afa158015613727573d6000803e3d6000fd5b505050506040513d601f19601f8201168201806040525081019061374b919061441c565b6001600160a01b03160361382d576003546001600160a01b031633146137b35760405162461bcd60e51b815260206004820152601a60248201527f4f6e6c79204f776e65722063616e20637265617465207061697200000000000060448201526064016107a9565b6000546040516364e329cb60e11b81526001600160a01b038a8116600483015289811660248301529091169063c9c65396906044016020604051808303816000875af1158015613807573d6000803e3d6000fd5b505050506040513d601f19601f8201168201806040525081019061382b919061441c565b505b600080548190613847906001600160a01b03168b8b6138fe565b91509150816000148015613859575080155b15613869578793508692506138f1565b600061387689848461353e565b90508781116138aa578581101561389f5760405162461bcd60e51b81526004016107a99061424b565b8894509250826138ef565b60006138b789848661353e565b9050898111156138c9576138c96139d4565b878110156138e95760405162461bcd60e51b81526004016107a990614207565b94508793505b505b5050965096945050505050565b600080600061390d85856135dc565b50905061391b868686612c3d565b5060008061392a888888612c3d565b6001600160a01b0316630902f1ac6040518163ffffffff1660e01b8152600401606060405180830381865afa158015613967573d6000803e3d6000fd5b505050506040513d601f19601f8201168201806040525081019061398b91906143cc565b506001600160701b031691506001600160701b03169150826001600160a01b0316876001600160a01b0316146139c25780826139c5565b81815b90999098509650505050505050565b634e487b7160e01b600052600160045260246000fd5b6001600160a01b03811681146139ff57600080fd5b50565b8035613a0d816139ea565b919050565b60008060008060008060c08789031215613a2b57600080fd5b8635613a36816139ea565b95506020870135945060408701359350606087013592506080870135613a5b816139ea565b8092505060a087013590509295509295509295565b600080600060608486031215613a8557600080fd5b505081359360208301359350604090920135919050565b60008083601f840112613aae57600080fd5b50813567ffffffffffffffff811115613ac657600080fd5b6020830191508360208260051b85010111156136ca57600080fd5b60008060008060008060a08789031215613afa57600080fd5b8635955060208701359450604087013567ffffffffffffffff811115613b1f57600080fd5b613b2b89828a01613a9c565b9095509350506060870135613b3f816139ea565b80925050608087013590509295509295509295565b6020808252825182820181905260009190848201906040850190845b81811015613b8c57835183529284019291840191600101613b70565b50909695505050505050565b634e487b7160e01b600052604160045260246000fd5b60008060408385031215613bc157600080fd5b8235915060208084013567ffffffffffffffff80821115613be157600080fd5b818601915086601f830112613bf557600080fd5b813581811115613c0757613c07613b98565b8060051b604051601f19603f83011681018181108582111715613c2c57613c2c613b98565b604052918252848201925083810185019189831115613c4a57600080fd5b938501935b82851015613c6f57613c6085613a02565b84529385019392850192613c4f565b8096505050505050509250929050565b80151581146139ff57600080fd5b803560ff81168114613a0d57600080fd5b60008060008060008060008060008060006101608c8e031215613cc057600080fd5b8b35613ccb816139ea565b9a5060208c0135613cdb816139ea565b995060408c0135985060608c0135975060808c0135965060a08c0135613d00816139ea565b955060c08c0135945060e08c0135613d1781613c7f565b9350613d266101008d01613c8d565b92506101208c013591506101408c013590509295989b509295989b9093969950565b600060208284031215613d5a57600080fd5b5035919050565b600060208284031215613d7357600080fd5b8135610c2481613c7f565b600060208284031215613d9057600080fd5b8135610c24816139ea565b600080600080600060808688031215613db357600080fd5b85359450602086013567ffffffffffffffff811115613dd157600080fd5b613ddd88828901613a9c565b9095509350506040860135613df1816139ea565b949793965091946060013592915050565b600080600080600080600060e0888a031215613e1d57600080fd5b8735613e28816139ea565b96506020880135613e38816139ea565b955060408801359450606088013593506080880135925060a0880135613e5d816139ea565b8092505060c0880135905092959891949750929550565b6000806000806000806000806000806101408b8d031215613e9457600080fd5b8a35613e9f816139ea565b995060208b0135985060408b0135975060608b0135965060808b0135613ec4816139ea565b955060a08b0135945060c08b0135613edb81613c7f565b9350613ee960e08c01613c8d565b92506101008b013591506101208b013590509295989b9194979a5092959850565b600080600080600080600080610100898b031215613f2757600080fd5b8835613f32816139ea565b97506020890135613f42816139ea565b965060408901359550606089013594506080890135935060a0890135925060c0890135613f6e816139ea565b8092505060e089013590509295985092959890939650565b602080825260139082015272151a599a549bdd5d195c8e8811561412549151606a1b604082015260600190565b634e487b7160e01b600052601160045260246000fd5b600082821015613fdb57613fdb613fb3565b500390565b634e487b7160e01b600052603260045260246000fd5b60208082526018908201527f54694669526f757465723a20494e56414c49445f504154480000000000000000604082015260600190565b60208082526026908201527f54694669526f757465723a20494e53554646494349454e545f4f55545055545f604082015265105353d5539560d21b606082015260800190565b600081600019048311821515161561408d5761408d613fb3565b500290565b6000826140af57634e487b7160e01b600052601260045260246000fd5b500490565b6001600160a01b0397881681529590961660208601526040850193909352606084019190915260ff16608083015260a082015260c081019190915260e00190565b60208082526029908201527f50616e63616b65526f757465723a20494e53554646494349454e545f4f555450604082015268155517d05353d5539560ba1b606082015260800190565b60208082526022908201527f54694669526f757465723a204558434553534956455f494e5055545f414d4f55604082015261139560f21b606082015260800190565b60208082526013908201527227bbb732b939b434b8103932b8bab4b932b21760691b604082015260600190565b6000602082840312156141bf57600080fd5b5051919050565b6000602082840312156141d857600080fd5b8151610c2481613c7f565b600080604083850312156141f657600080fd5b505080516020909101519092909150565b60208082526024908201527f50616e63616b65526f757465723a20494e53554646494349454e545f415f414d60408201526313d5539560e21b606082015260800190565b60208082526024908201527f50616e63616b65526f757465723a20494e53554646494349454e545f425f414d60408201526313d5539560e21b606082015260800190565b60005b838110156142aa578181015183820152602001614292565b838111156130215750506000910152565b600082516142cd81846020870161428f565b9190910192915050565b60208082526026908201527f50616e63616b654c6962726172793a20494e53554646494349454e545f4c495160408201526555494449545960d01b606082015260800190565b6000821982111561433057614330613fb3565b500190565b60006001820161434757614347613fb3565b5060010190565b84815283602082015260018060a01b038316604082015260806060820152600082518060808401526143878160a085016020870161428f565b601f01601f19169190910160a00195945050505050565b6000816143ad576143ad613fb3565b506000190190565b80516001600160701b0381168114613a0d57600080fd5b6000806000606084860312156143e157600080fd5b6143ea846143b5565b92506143f8602085016143b5565b9150604084015163ffffffff8116811461441157600080fd5b809150509250925092565b60006020828403121561442e57600080fd5b8151610c24816139ea56fea26469706673582212206dba4ee3e3529881cd667ab04c439409ab4336a28fccd49f128333d423f476aa64736f6c634300080d0033",
  "linkReferences": {},
  "deployedLinkReferences": {}
}